:0100000000FF
:0100010000FE
:0100020000FD
:0100030000FC
:0100040000FB
:0100050001F9
:0100060000F9
:0100070001F7
:0100080000F7
:0100090001F5
:01000A0000F5
:01000B0001F3
:01000C0000F3
:01000D0000F2
:01000E0000F1
:01000F0001EF
:0100100000EF
:0100110001ED
:0100120000ED
:0100130001EB
:0100140000EB
:0100150001E9
:0100160000E9
:0100170001E7
:0100180000E7
:0100190001E5
:01001A0000E5
:01001B0001E3
:01001C0000E3
:01001D0000E2
:01001E0000E1
:01001F0000E0
:0100200000DF
:0100210001DD
:0100220000DD
:0100230001DB
:0100240000DB
:0100250001D9
:0100260000D9
:0100270001D7
:0100280000D7
:0100290000D6
:01002A0000D5
:01002B0001D3
:01002C0000D3
:01002D0001D1
:01002E0000D1
:01002F0000D0
:0100300000CF
:0100310000CE
:0100320000CD
:0100330001CB
:0100340000CB
:0100350000CA
:0100360000C9
:0100370000C8
:0100380000C7
:0100390001C5
:01003A0000C5
:01003B0001C3
:01003C0000C3
:01003D0001C1
:01003E0000C1
:01003F0001BF
:0100400000BF
:0100410000BE
:0100420000BD
:0100430000BC
:0100440000BB
:0100450001B9
:0100460000B9
:0100470001B7
:0100480000B7
:0100490000B6
:01004A0000B5
:01004B0001B3
:01004C0000B3
:01004D0000B2
:01004E0000B1
:01004F0000B0
:0100500000AF
:0100510000AE
:0100520000AD
:0100530001AB
:0100540000AB
:0100550001A9
:0100560000A9
:0100570000A8
:0100580000A7
:0100590001A5
:01005A0000A5
:01005B0001A3
:01005C0000A3
:01005D0001A1
:01005E0000A1
:01005F00019F
:01006000009F
:01006100009E
:01006200009D
:01006300019B
:01006400009B
:01006500009A
:010066000099
:010067000098
:010068000097
:010069000195
:01006A000095
:01006B000094
:01006C000093
:01006D000191
:01006E000091
:01006F00018F
:01007000008F
:01007100018D
:01007200008D
:01007300018B
:01007400008B
:010075000189
:010076000089
:010077000088
:010078000087
:010079000185
:01007A000085
:01007B000084
:01007C000083
:01007D000181
:01007E000081
:01007F00017F
:01008000007F
:01008100007E
:01008200007D
:01008300017B
:01008400007B
:010085000179
:010086000079
:010087000177
:010088000077
:010089000175
:01008A000075
:01008B000074
:01008C000073
:01008D000171
:01008E000071
:01008F00016F
:01009000006F
:01009100006E
:01009200006D
:01009300016B
:01009400006B
:01009500006A
:010096000069
:010097000167
:010098000067
:010099000066
:01009A000065
:01009B000064
:01009C000063
:01009D000062
:01009E000061
:01009F000060
:0100A000005F
:0100A100005E
:0100A200005D
:0100A300015B
:0100A400005B
:0100A500005A
:0100A6000059
:0100A7000157
:0100A8000057
:0100A9000155
:0100AA000055
:0100AB000054
:0100AC000053
:0100AD000052
:0100AE000051
:0100AF000050
:0100B000004F
:0100B100014D
:0100B200004D
:0100B300004C
:0100B400004B
:0100B5000149
:0100B6000049
:0100B7000147
:0100B8000047
:0100B9000145
:0100BA000045
:0100BB000143
:0100BC000043
:0100BD000141
:0100BE000041
:0100BF00013F
:0100C000003F
:0100C100003E
:0100C200003D
:0100C300013B
:0100C400003B
:0100C500003A
:0100C6000039
:0100C7000137
:0100C8000037
:0100C9000036
:0100CA000035
:0100CB000133
:0100CC000033
:0100CD000131
:0100CE000031
:0100CF00012F
:0100D000002F
:0100D100012D
:0100D200002D
:0100D300002C
:0100D400002B
:0100D500002A
:0100D6000029
:0100D7000028
:0100D8000027
:0100D9000026
:0100DA000025
:0100DB000024
:0100DC000023
:0100DD000022
:0100DE000021
:0100DF000020
:0100E000001F
:0100E100001E
:0100E200001D
:0100E300001C
:0100E400001B
:0100E500001A
:0100E6000019
:0100E7000018
:0100E8000017
:0100E9000016
:0100EA000015
:0100EB000014
:0100EC000013
:0100ED000111
:0100EE000011
:0100EF000010
:0100F000000F
:0100F100010D
:0100F200000D
:0100F300000C
:0100F400000B
:0100F5000109
:0100F6000009
:0100F7000107
:0100F8000007
:0100F9000105
:0100FA000005
:0100FB000103
:0100FC000003
:0100FD000101
:0100FE000001
:0100FF000000
:0101000000FE
:0101010000FD
:0101020000FC
:0101030001FA
:0101040000FA
:0101050001F8
:0101060000F8
:0101070001F6
:0101080000F6
:0101090000F5
:01010A0000F4
:01010B0000F3
:01010C0000F2
:01010D0000F1
:01010E0000F0
:01010F0001EE
:0101100000EE
:0101110001EC
:0101120000EC
:0101130001EA
:0101140000EA
:0101150001E8
:0101160000E8
:0101170000E7
:0101180000E6
:0101190000E5
:01011A0000E4
:01011B0001E2
:01011C0000E2
:01011D0001E0
:01011E0000E0
:01011F0001DE
:0101200000DE
:0101210001DC
:0101220000DC
:0101230001DA
:0101240000DA
:0101250000D9
:0101260000D8
:0101270000D7
:0101280000D6
:0101290001D4
:01012A0000D4
:01012B0000D3
:01012C0000D2
:01012D0000D1
:01012E0000D0
:01012F0000CF
:0101300000CE
:0101310000CD
:0101320000CC
:0101330000CB
:0101340000CA
:0101350000C9
:0101360000C8
:0101370001C6
:0101380000C6
:0101390000C5
:01013A0000C4
:01013B0000C3
:01013C0000C2
:01013D0000C1
:01013E0000C0
:01013F0000BF
:0101400000BE
:0101410000BD
:0101420000BC
:0101430001BA
:0101440000BA
:0101450001B8
:0101460000B8
:0101470001B6
:0101480000B6
:0101490001B4
:01014A0000B4
:01014B0001B2
:01014C0000B2
:01014D0001B0
:01014E0000B0
:01014F0000AF
:0101500000AE
:0101510001AC
:0101520000AC
:0101530000AB
:0101540000AA
:0101550000A9
:0101560000A8
:0101570000A7
:0101580000A6
:0101590000A5
:01015A0000A4
:01015B0001A2
:01015C0000A2
:01015D0000A1
:01015E0000A0
:01015F00019E
:01016000009E
:01016100019C
:01016200009C
:01016300009B
:01016400009A
:010165000099
:010166000098
:010167000097
:010168000096
:010169000095
:01016A000094
:01016B000093
:01016C000092
:01016D000091
:01016E000090
:01016F00008F
:01017000008E
:01017100018C
:01017200008C
:01017300018A
:01017400008A
:010175000089
:010176000088
:010177000186
:010178000086
:010179000085
:01017A000084
:01017B000083
:01017C000082
:01017D000081
:01017E000080
:01017F00007F
:01018000007E
:01018100017C
:01018200007C
:01018300017A
:01018400007A
:010185000178
:010186000078
:010187000176
:010188000076
:010189000174
:01018A000074
:01018B000172
:01018C000072
:01018D000071
:01018E000070
:01018F00016E
:01019000006E
:01019100006D
:01019200006C
:01019300016A
:01019400006A
:010195000069
:010196000068
:010197000067
:010198000066
:010199000164
:01019A000064
:01019B000162
:01019C000062
:01019D000061
:01019E000060
:01019F00015E
:0101A000005E
:0101A100005D
:0101A200005C
:0101A300005B
:0101A400005A
:0101A5000059
:0101A6000058
:0101A7000057
:0101A8000056
:0101A9000055
:0101AA000054
:0101AB000053
:0101AC000052
:0101AD000150
:0101AE000050
:0101AF00004F
:0101B000004E
:0101B100014C
:0101B200004C
:0101B300004B
:0101B400004A
:0101B5000148
:0101B6000048
:0101B7000047
:0101B8000046
:0101B9000045
:0101BA000044
:0101BB000043
:0101BC000042
:0101BD000140
:0101BE000040
:0101BF00013E
:0101C000003E
:0101C100003D
:0101C200003C
:0101C300003B
:0101C400003A
:0101C5000039
:0101C6000038
:0101C7000136
:0101C8000036
:0101C9000134
:0101CA000034
:0101CB000132
:0101CC000032
:0101CD000130
:0101CE000030
:0101CF00012E
:0101D000002E
:0101D100002D
:0101D200002C
:0101D300012A
:0101D400002A
:0101D5000128
:0101D6000028
:0101D7000126
:0101D8000026
:0101D9000124
:0101DA000024
:0101DB000023
:0101DC000022
:0101DD000021
:0101DE000020
:0101DF00001F
:0101E000001E
:0101E100011C
:0101E200001C
:0101E300001B
:0101E400001A
:0101E5000019
:0101E6000018
:0101E7000017
:0101E8000016
:0101E9000114
:0101EA000014
:0101EB000013
:0101EC000012
:0101ED000110
:0101EE000010
:0101EF00010E
:0101F000000E
:0101F100000D
:0101F200000C
:0101F300000B
:0101F400000A
:0101F5000009
:0101F6000008
:0101F7000007
:0101F8000006
:0101F9000104
:0101FA000004
:0101FB000102
:0101FC000002
:0101FD000100
:0101FE000000
:0101FF0000FF
:0102000000FD
:0102010000FC
:0102020000FB
:0102030000FA
:0102040000F9
:0102050001F7
:0102060000F7
:0102070000F6
:0102080000F5
:0102090000F4
:01020A0000F3
:01020B0001F1
:01020C0000F1
:01020D0000F0
:01020E0000EF
:01020F0000EE
:0102100000ED
:0102110000EC
:0102120000EB
:0102130001E9
:0102140000E9
:0102150001E7
:0102160000E7
:0102170001E5
:0102180000E5
:0102190000E4
:01021A0000E3
:01021B0000E2
:01021C0000E1
:01021D0000E0
:01021E0000DF
:01021F0000DE
:0102200000DD
:0102210000DC
:0102220000DB
:0102230000DA
:0102240000D9
:0102250001D7
:0102260000D7
:0102270001D5
:0102280000D5
:0102290000D4
:01022A0000D3
:01022B0001D1
:01022C0000D1
:01022D0000D0
:01022E0000CF
:01022F0000CE
:0102300000CD
:0102310000CC
:0102320000CB
:0102330001C9
:0102340000C9
:0102350001C7
:0102360000C7
:0102370001C5
:0102380000C5
:0102390001C3
:01023A0000C3
:01023B0001C1
:01023C0000C1
:01023D0000C0
:01023E0000BF
:01023F0000BE
:0102400000BD
:0102410001BB
:0102420000BB
:0102430000BA
:0102440000B9
:0102450001B7
:0102460000B7
:0102470001B5
:0102480000B5
:0102490000B4
:01024A0000B3
:01024B0001B1
:01024C0000B1
:01024D0001AF
:01024E0000AF
:01024F0000AE
:0102500000AD
:0102510001AB
:0102520000AB
:0102530000AA
:0102540000A9
:0102550000A8
:0102560000A7
:0102570000A6
:0102580000A5
:0102590000A4
:01025A0000A3
:01025B0000A2
:01025C0000A1
:01025D0000A0
:01025E00009F
:01025F00009E
:01026000009D
:01026100009C
:01026200009B
:01026300009A
:010264000099
:010265000098
:010266000097
:010267000096
:010268000095
:010269000094
:01026A000093
:01026B000092
:01026C000091
:01026D000090
:01026E00008F
:01026F00008E
:01027000008D
:01027100018B
:01027200008B
:01027300008A
:010274000089
:010275000088
:010276000087
:010277000185
:010278000085
:010279000183
:01027A000083
:01027B000082
:01027C000081
:01027D00017F
:01027E00007F
:01027F00017D
:01028000007D
:01028100007C
:01028200007B
:01028300007A
:010284000079
:010285000177
:010286000077
:010287000175
:010288000075
:010289000074
:01028A000073
:01028B000171
:01028C000071
:01028D000070
:01028E00006F
:01028F00016D
:01029000006D
:01029100016B
:01029200006B
:01029300006A
:010294000069
:010295000167
:010296000067
:010297000165
:010298000065
:010299000064
:01029A000063
:01029B000161
:01029C000061
:01029D00015F
:01029E00005F
:01029F00005E
:0102A000005D
:0102A100005C
:0102A200005B
:0102A300005A
:0102A4000059
:0102A5000058
:0102A6000057
:0102A7000155
:0102A8000055
:0102A9000054
:0102AA000053
:0102AB000052
:0102AC000051
:0102AD00014F
:0102AE00004F
:0102AF00004E
:0102B000004D
:0102B100004C
:0102B200004B
:0102B300004A
:0102B4000049
:0102B5000147
:0102B6000047
:0102B7000145
:0102B8000045
:0102B9000044
:0102BA000043
:0102BB000141
:0102BC000041
:0102BD000040
:0102BE00003F
:0102BF00013D
:0102C000003D
:0102C100003C
:0102C200003B
:0102C300003A
:0102C4000039
:0102C5000137
:0102C6000037
:0102C7000036
:0102C8000035
:0102C9000133
:0102CA000033
:0102CB000032
:0102CC000031
:0102CD000030
:0102CE00002F
:0102CF00012D
:0102D000002D
:0102D100002C
:0102D200002B
:0102D300002A
:0102D4000029
:0102D5000028
:0102D6000027
:0102D7000026
:0102D8000025
:0102D9000024
:0102DA000023
:0102DB000022
:0102DC000021
:0102DD000020
:0102DE00001F
:0102DF00001E
:0102E000001D
:0102E100001C
:0102E200001B
:0102E300001A
:0102E4000019
:0102E5000018
:0102E6000017
:0102E7000016
:0102E8000015
:0102E9000113
:0102EA000013
:0102EB000111
:0102EC000011
:0102ED00010F
:0102EE00000F
:0102EF00010D
:0102F000000D
:0102F100010B
:0102F200000B
:0102F3000109
:0102F4000009
:0102F5000008
:0102F6000007
:0102F7000105
:0102F8000005
:0102F9000103
:0102FA000003
:0102FB000002
:0102FC000001
:0102FD000000
:0102FE0000FF
:0102FF0000FE
:0103000000FC
:0103010001FA
:0103020000FA
:0103030000F9
:0103040000F8
:0103050001F6
:0103060000F6
:0103070000F5
:0103080000F4
:0103090000F3
:01030A0000F2
:01030B0001F0
:01030C0000F0
:01030D0001EE
:01030E0000EE
:01030F0001EC
:0103100000EC
:0103110001EA
:0103120000EA
:0103130000E9
:0103140000E8
:0103150000E7
:0103160000E6
:0103170001E4
:0103180000E4
:0103190001E2
:01031A0000E2
:01031B0001E0
:01031C0000E0
:01031D0000DF
:01031E0000DE
:01031F0001DC
:0103200000DC
:0103210000DB
:0103220000DA
:0103230000D9
:0103240000D8
:0103250000D7
:0103260000D6
:0103270001D4
:0103280000D4
:0103290000D3
:01032A0000D2
:01032B0001D0
:01032C0000D0
:01032D0001CE
:01032E0000CE
:01032F0001CC
:0103300000CC
:0103310000CB
:0103320000CA
:0103330001C8
:0103340000C8
:0103350001C6
:0103360000C6
:0103370000C5
:0103380000C4
:0103390000C3
:01033A0000C2
:01033B0001C0
:01033C0000C0
:01033D0001BE
:01033E0000BE
:01033F0001BC
:0103400000BC
:0103410001BA
:0103420000BA
:0103430001B8
:0103440000B8
:0103450001B6
:0103460000B6
:0103470000B5
:0103480000B4
:0103490000B3
:01034A0000B2
:01034B0000B1
:01034C0000B0
:01034D0001AE
:01034E0000AE
:01034F0000AD
:0103500000AC
:0103510001AA
:0103520000AA
:0103530000A9
:0103540000A8
:0103550001A6
:0103560000A6
:0103570000A5
:0103580000A4
:0103590000A3
:01035A0000A2
:01035B0001A0
:01035C0000A0
:01035D00019E
:01035E00009E
:01035F00009D
:01036000009C
:01036100019A
:01036200009A
:010363000099
:010364000098
:010365000097
:010366000096
:010367000194
:010368000094
:010369000192
:01036A000092
:01036B000190
:01036C000090
:01036D00018E
:01036E00008E
:01036F00018C
:01037000008C
:01037100018A
:01037200008A
:010373000089
:010374000088
:010375000087
:010376000086
:010377000085
:010378000084
:010379000182
:01037A000082
:01037B000180
:01037C000080
:01037D00007F
:01037E00007E
:01037F00007D
:01038000007C
:01038100007B
:01038200007A
:010383000178
:010384000078
:010385000077
:010386000076
:010387000075
:010388000074
:010389000172
:01038A000072
:01038B000071
:01038C000070
:01038D00006F
:01038E00006E
:01038F00016C
:01039000006C
:01039100006B
:01039200006A
:010393000069
:010394000068
:010395000166
:010396000066
:010397000065
:010398000064
:010399000162
:01039A000062
:01039B000160
:01039C000060
:01039D00015E
:01039E00005E
:01039F00015C
:0103A000005C
:0103A100015A
:0103A200005A
:0103A3000158
:0103A4000058
:0103A5000156
:0103A6000056
:0103A7000055
:0103A8000054
:0103A9000053
:0103AA000052
:0103AB000051
:0103AC000050
:0103AD00014E
:0103AE00004E
:0103AF00004D
:0103B000004C
:0103B100014A
:0103B200004A
:0103B3000148
:0103B4000048
:0103B5000047
:0103B6000046
:0103B7000045
:0103B8000044
:0103B9000043
:0103BA000042
:0103BB000041
:0103BC000040
:0103BD00013E
:0103BE00003E
:0103BF00013C
:0103C000003C
:0103C100003B
:0103C200003A
:0103C3000039
:0103C4000038
:0103C5000037
:0103C6000036
:0103C7000035
:0103C8000034
:0103C9000033
:0103CA000032
:0103CB000031
:0103CC000030
:0103CD00002F
:0103CE00002E
:0103CF00002D
:0103D000002C
:0103D100002B
:0103D200002A
:0103D3000128
:0103D4000028
:0103D5000027
:0103D6000026
:0103D7000124
:0103D8000024
:0103D9000122
:0103DA000022
:0103DB000021
:0103DC000020
:0103DD00011E
:0103DE00001E
:0103DF00011C
:0103E000001C
:0103E100011A
:0103E200001A
:0103E3000118
:0103E4000018
:0103E5000116
:0103E6000016
:0103E7000015
:0103E8000014
:0103E9000013
:0103EA000012
:0103EB000110
:0103EC000010
:0103ED00000F
:0103EE00000E
:0103EF00010C
:0103F000000C
:0103F100000B
:0103F200000A
:0103F3000108
:0103F4000008
:0103F5000106
:0103F6000006
:0103F7000104
:0103F8000004
:0103F9000102
:0103FA000002
:0103FB000001
:0103FC000000
:0103FD0000FF
:0103FE0000FE
:0103FF0000FD
:0104000000FB
:0104010001F9
:0104020000F9
:0104030001F7
:0104040000F7
:0104050001F5
:0104060000F5
:0104070001F3
:0104080000F3
:0104090000F2
:01040A0000F1
:01040B0001EF
:01040C0000EF
:01040D0001ED
:01040E0000ED
:01040F0001EB
:0104100000EB
:0104110001E9
:0104120000E9
:0104130001E7
:0104140000E7
:0104150001E5
:0104160000E5
:0104170001E3
:0104180000E3
:0104190000E2
:01041A0000E1
:01041B0000E0
:01041C0000DF
:01041D0000DE
:01041E0000DD
:01041F0000DC
:0104200000DB
:0104210001D9
:0104220000D9
:0104230001D7
:0104240000D7
:0104250000D6
:0104260000D5
:0104270001D3
:0104280000D3
:0104290000D2
:01042A0000D1
:01042B0001CF
:01042C0000CF
:01042D0000CE
:01042E0000CD
:01042F0001CB
:0104300000CB
:0104310001C9
:0104320000C9
:0104330000C8
:0104340000C7
:0104350000C6
:0104360000C5
:0104370000C4
:0104380000C3
:0104390001C1
:01043A0000C1
:01043B0000C0
:01043C0000BF
:01043D0000BE
:01043E0000BD
:01043F0000BC
:0104400000BB
:0104410001B9
:0104420000B9
:0104430000B8
:0104440000B7
:0104450001B5
:0104460000B5
:0104470001B3
:0104480000B3
:0104490000B2
:01044A0000B1
:01044B0000B0
:01044C0000AF
:01044D0000AE
:01044E0000AD
:01044F0000AC
:0104500000AB
:0104510001A9
:0104520000A9
:0104530001A7
:0104540000A7
:0104550001A5
:0104560000A5
:0104570000A4
:0104580000A3
:0104590000A2
:01045A0000A1
:01045B0000A0
:01045C00009F
:01045D00019D
:01045E00009D
:01045F00009C
:01046000009B
:01046100009A
:010462000099
:010463000197
:010464000097
:010465000096
:010466000095
:010467000094
:010468000093
:010469000092
:01046A000091
:01046B00018F
:01046C00008F
:01046D00018D
:01046E00008D
:01046F00018B
:01047000008B
:01047100008A
:010472000089
:010473000088
:010474000087
:010475000086
:010476000085
:010477000084
:010478000083
:010479000082
:01047A000081
:01047B000080
:01047C00007F
:01047D00017D
:01047E00007D
:01047F00017B
:01048000007B
:01048100007A
:010482000079
:010483000177
:010484000077
:010485000076
:010486000075
:010487000074
:010488000073
:010489000072
:01048A000071
:01048B00016F
:01048C00006F
:01048D00016D
:01048E00006D
:01048F00016B
:01049000006B
:010491000169
:010492000069
:010493000167
:010494000067
:010495000165
:010496000065
:010497000064
:010498000063
:010499000161
:01049A000061
:01049B00015F
:01049C00005F
:01049D00005E
:01049E00005D
:01049F00005C
:0104A000005B
:0104A100005A
:0104A2000059
:0104A3000058
:0104A4000057
:0104A5000155
:0104A6000055
:0104A7000054
:0104A8000053
:0104A9000151
:0104AA000051
:0104AB00014F
:0104AC00004F
:0104AD00004E
:0104AE00004D
:0104AF00004C
:0104B000004B
:0104B100004A
:0104B2000049
:0104B3000147
:0104B4000047
:0104B5000145
:0104B6000045
:0104B7000143
:0104B8000043
:0104B9000141
:0104BA000041
:0104BB000040
:0104BC00003F
:0104BD00013D
:0104BE00003D
:0104BF00003C
:0104C000003B
:0104C100003A
:0104C2000039
:0104C3000038
:0104C4000037
:0104C5000135
:0104C6000035
:0104C7000133
:0104C8000033
:0104C9000131
:0104CA000031
:0104CB000030
:0104CC00002F
:0104CD00012D
:0104CE00002D
:0104CF00012B
:0104D000002B
:0104D100002A
:0104D2000029
:0104D3000127
:0104D4000027
:0104D5000125
:0104D6000025
:0104D7000123
:0104D8000023
:0104D9000121
:0104DA000021
:0104DB00011F
:0104DC00001F
:0104DD00011D
:0104DE00001D
:0104DF00011B
:0104E000001B
:0104E1000119
:0104E2000019
:0104E3000018
:0104E4000017
:0104E5000115
:0104E6000015
:0104E7000113
:0104E8000013
:0104E9000111
:0104EA000011
:0104EB00010F
:0104EC00000F
:0104ED00000E
:0104EE00000D
:0104EF00010B
:0104F000000B
:0104F100000A
:0104F2000009
:0104F3000008
:0104F4000007
:0104F5000006
:0104F6000005
:0104F7000004
:0104F8000003
:0104F9000101
:0104FA000001
:0104FB0001FF
:0104FC0000FF
:0104FD0000FE
:0104FE0000FD
:0104FF0001FB
:0105000000FA
:0105010000F9
:0105020000F8
:0105030001F6
:0105040000F6
:0105050000F5
:0105060000F4
:0105070000F3
:0105080000F2
:0105090001F0
:01050A0000F0
:01050B0001EE
:01050C0000EE
:01050D0000ED
:01050E0000EC
:01050F0001EA
:0105100000EA
:0105110000E9
:0105120000E8
:0105130001E6
:0105140000E6
:0105150000E5
:0105160000E4
:0105170001E2
:0105180000E2
:0105190001E0
:01051A0000E0
:01051B0000DF
:01051C0000DE
:01051D0001DC
:01051E0000DC
:01051F0000DB
:0105200000DA
:0105210000D9
:0105220000D8
:0105230001D6
:0105240000D6
:0105250000D5
:0105260000D4
:0105270001D2
:0105280000D2
:0105290000D1
:01052A0000D0
:01052B0001CE
:01052C0000CE
:01052D0001CC
:01052E0000CC
:01052F0000CB
:0105300000CA
:0105310000C9
:0105320000C8
:0105330001C6
:0105340000C6
:0105350001C4
:0105360000C4
:0105370001C2
:0105380000C2
:0105390001C0
:01053A0000C0
:01053B0000BF
:01053C0000BE
:01053D0001BC
:01053E0000BC
:01053F0000BB
:0105400000BA
:0105410000B9
:0105420000B8
:0105430000B7
:0105440000B6
:0105450000B5
:0105460000B4
:0105470000B3
:0105480000B2
:0105490001B0
:01054A0000B0
:01054B0000AF
:01054C0000AE
:01054D0001AC
:01054E0000AC
:01054F0000AB
:0105500000AA
:0105510001A8
:0105520000A8
:0105530000A7
:0105540000A6
:0105550000A5
:0105560000A4
:0105570001A2
:0105580000A2
:0105590001A0
:01055A0000A0
:01055B00019E
:01055C00009E
:01055D00009D
:01055E00009C
:01055F00019A
:01056000009A
:010561000198
:010562000098
:010563000097
:010564000096
:010565000095
:010566000094
:010567000093
:010568000092
:010569000091
:01056A000090
:01056B00008F
:01056C00008E
:01056D00018C
:01056E00008C
:01056F00018A
:01057000008A
:010571000188
:010572000088
:010573000087
:010574000086
:010575000085
:010576000084
:010577000182
:010578000082
:010579000180
:01057A000080
:01057B00017E
:01057C00007E
:01057D00007D
:01057E00007C
:01057F00017A
:01058000007A
:010581000079
:010582000078
:010583000077
:010584000076
:010585000075
:010586000074
:010587000073
:010588000072
:010589000170
:01058A000070
:01058B00006F
:01058C00006E
:01058D00016C
:01058E00006C
:01058F00016A
:01059000006A
:010591000168
:010592000068
:010593000067
:010594000066
:010595000065
:010596000064
:010597000162
:010598000062
:010599000160
:01059A000060
:01059B00015E
:01059C00005E
:01059D00015C
:01059E00005C
:01059F00005B
:0105A000005A
:0105A1000158
:0105A2000058
:0105A3000057
:0105A4000056
:0105A5000154
:0105A6000054
:0105A7000152
:0105A8000052
:0105A9000150
:0105AA000050
:0105AB00004F
:0105AC00004E
:0105AD00014C
:0105AE00004C
:0105AF00014A
:0105B000004A
:0105B1000049
:0105B2000048
:0105B3000146
:0105B4000046
:0105B5000144
:0105B6000044
:0105B7000142
:0105B8000042
:0105B9000041
:0105BA000040
:0105BB00013E
:0105BC00003E
:0105BD00013C
:0105BE00003C
:0105BF00013A
:0105C000003A
:0105C1000138
:0105C2000038
:0105C3000037
:0105C4000036
:0105C5000035
:0105C6000034
:0105C7000132
:0105C8000032
:0105C9000031
:0105CA000030
:0105CB00012E
:0105CC00002E
:0105CD00012C
:0105CE00002C
:0105CF00002B
:0105D000002A
:0105D1000128
:0105D2000028
:0105D3000126
:0105D4000026
:0105D5000124
:0105D6000024
:0105D7000122
:0105D8000022
:0105D9000021
:0105DA000020
:0105DB00011E
:0105DC00001E
:0105DD00011C
:0105DE00001C
:0105DF00011A
:0105E000001A
:0105E1000118
:0105E2000018
:0105E3000116
:0105E4000016
:0105E5000015
:0105E6000014
:0105E7000112
:0105E8000012
:0105E9000110
:0105EA000010
:0105EB00010E
:0105EC00000E
:0105ED00010C
:0105EE00000C
:0105EF00000B
:0105F000000A
:0105F1000108
:0105F2000008
:0105F3000007
:0105F4000006
:0105F5000104
:0105F6000004
:0105F7000102
:0105F8000002
:0105F9000100
:0105FA000000
:0105FB0001FE
:0105FC0000FE
:0105FD0001FC
:0105FE0000FC
:0105FF0001FA
:0106000000F9
:0106010001F7
:0106020000F7
:0106030001F5
:0106040000F5
:0106050001F3
:0106060000F3
:0106070001F1
:0106080000F1
:0106090001EF
:01060A0000EF
:01060B0000EE
:01060C0000ED
:01060D0001EB
:01060E0000EB
:01060F0001E9
:0106100000E9
:0106110000E8
:0106120000E7
:0106130000E6
:0106140000E5
:0106150000E4
:0106160000E3
:0106170001E1
:0106180000E1
:0106190001DF
:01061A0000DF
:01061B0000DE
:01061C0000DD
:01061D0000DC
:01061E0000DB
:01061F0001D9
:0106200000D9
:0106210001D7
:0106220000D7
:0106230001D5
:0106240000D5
:0106250001D3
:0106260000D3
:0106270000D2
:0106280000D1
:0106290001CF
:01062A0000CF
:01062B0001CD
:01062C0000CD
:01062D0000CC
:01062E0000CB
:01062F0001C9
:0106300000C9
:0106310000C8
:0106320000C7
:0106330001C5
:0106340000C5
:0106350001C3
:0106360000C3
:0106370001C1
:0106380000C1
:0106390000C0
:01063A0000BF
:01063B0000BE
:01063C0000BD
:01063D0001BB
:01063E0000BB
:01063F0001B9
:0106400000B9
:0106410000B8
:0106420000B7
:0106430000B6
:0106440000B5
:0106450000B4
:0106460000B3
:0106470001B1
:0106480000B1
:0106490001AF
:01064A0000AF
:01064B0001AD
:01064C0000AD
:01064D0000AC
:01064E0000AB
:01064F0001A9
:0106500000A9
:0106510000A8
:0106520000A7
:0106530000A6
:0106540000A5
:0106550000A4
:0106560000A3
:0106570001A1
:0106580000A1
:0106590000A0
:01065A00009F
:01065B00019D
:01065C00009D
:01065D00019B
:01065E00009B
:01065F000199
:010660000099
:010661000098
:010662000097
:010663000096
:010664000095
:010665000193
:010666000093
:010667000191
:010668000091
:010669000090
:01066A00008F
:01066B00008E
:01066C00008D
:01066D00018B
:01066E00008B
:01066F00008A
:010670000089
:010671000187
:010672000087
:010673000086
:010674000085
:010675000183
:010676000083
:010677000181
:010678000081
:010679000080
:01067A00007F
:01067B00017D
:01067C00007D
:01067D00007C
:01067E00007B
:01067F00007A
:010680000079
:010681000177
:010682000077
:010683000175
:010684000075
:010685000173
:010686000073
:010687000171
:010688000071
:01068900016F
:01068A00006F
:01068B00006E
:01068C00006D
:01068D00006C
:01068E00006B
:01068F00006A
:010690000069
:010691000167
:010692000067
:010693000066
:010694000065
:010695000064
:010696000063
:010697000062
:010698000061
:01069900015F
:01069A00005F
:01069B00005E
:01069C00005D
:01069D00015B
:01069E00005B
:01069F000159
:0106A0000059
:0106A1000058
:0106A2000057
:0106A3000056
:0106A4000055
:0106A5000054
:0106A6000053
:0106A7000052
:0106A8000051
:0106A900014F
:0106AA00004F
:0106AB00014D
:0106AC00004D
:0106AD00014B
:0106AE00004B
:0106AF00004A
:0106B0000049
:0106B1000048
:0106B2000047
:0106B3000046
:0106B4000045
:0106B5000143
:0106B6000043
:0106B7000042
:0106B8000041
:0106B9000040
:0106BA00003F
:0106BB00013D
:0106BC00003D
:0106BD00003C
:0106BE00003B
:0106BF00003A
:0106C0000039
:0106C1000038
:0106C2000037
:0106C3000135
:0106C4000035
:0106C5000133
:0106C6000033
:0106C7000131
:0106C8000031
:0106C9000030
:0106CA00002F
:0106CB00002E
:0106CC00002D
:0106CD00002C
:0106CE00002B
:0106CF00002A
:0106D0000029
:0106D1000028
:0106D2000027
:0106D3000026
:0106D4000025
:0106D5000123
:0106D6000023
:0106D7000121
:0106D8000021
:0106D9000020
:0106DA00001F
:0106DB00011D
:0106DC00001D
:0106DD00001C
:0106DE00001B
:0106DF00001A
:0106E0000019
:0106E1000117
:0106E2000017
:0106E3000016
:0106E4000015
:0106E5000014
:0106E6000013
:0106E7000012
:0106E8000011
:0106E9000010
:0106EA00000F
:0106EB00000E
:0106EC00000D
:0106ED00000C
:0106EE00000B
:0106EF00000A
:0106F0000009
:0106F1000107
:0106F2000007
:0106F3000105
:0106F4000005
:0106F5000004
:0106F6000003
:0106F7000101
:0106F8000001
:0106F90001FF
:0106FA0000FF
:0106FB0001FD
:0106FC0000FD
:0106FD0001FB
:0106FE0000FB
:0106FF0000FA
:0107000000F8
:0107010001F6
:0107020000F6
:0107030001F4
:0107040000F4
:0107050000F3
:0107060000F2
:0107070000F1
:0107080000F0
:0107090000EF
:01070A0000EE
:01070B0001EC
:01070C0000EC
:01070D0000EB
:01070E0000EA
:01070F0001E8
:0107100000E8
:0107110000E7
:0107120000E6
:0107130000E5
:0107140000E4
:0107150001E2
:0107160000E2
:0107170001E0
:0107180000E0
:0107190000DF
:01071A0000DE
:01071B0001DC
:01071C0000DC
:01071D0000DB
:01071E0000DA
:01071F0001D8
:0107200000D8
:0107210000D7
:0107220000D6
:0107230000D5
:0107240000D4
:0107250001D2
:0107260000D2
:0107270001D0
:0107280000D0
:0107290001CE
:01072A0000CE
:01072B0000CD
:01072C0000CC
:01072D0001CA
:01072E0000CA
:01072F0001C8
:0107300000C8
:0107310001C6
:0107320000C6
:0107330001C4
:0107340000C4
:0107350001C2
:0107360000C2
:0107370000C1
:0107380000C0
:0107390000BF
:01073A0000BE
:01073B0001BC
:01073C0000BC
:01073D0001BA
:01073E0000BA
:01073F0001B8
:0107400000B8
:0107410001B6
:0107420000B6
:0107430000B5
:0107440000B4
:0107450000B3
:0107460000B2
:0107470000B1
:0107480000B0
:0107490001AE
:01074A0000AE
:01074B0000AD
:01074C0000AC
:01074D0000AB
:01074E0000AA
:01074F0001A8
:0107500000A8
:0107510000A7
:0107520000A6
:0107530000A5
:0107540000A4
:0107550000A3
:0107560000A2
:0107570000A1
:0107580000A0
:01075900009F
:01075A00009E
:01075B00019C
:01075C00009C
:01075D00009B
:01075E00009A
:01075F000198
:010760000098
:010761000097
:010762000096
:010763000194
:010764000094
:010765000192
:010766000092
:010767000190
:010768000090
:01076900008F
:01076A00008E
:01076B00008D
:01076C00008C
:01076D00018A
:01076E00008A
:01076F000089
:010770000088
:010771000186
:010772000086
:010773000085
:010774000084
:010775000083
:010776000082
:010777000081
:010778000080
:01077900017E
:01077A00007E
:01077B00007D
:01077C00007C
:01077D00017A
:01077E00007A
:01077F000079
:010780000078
:010781000176
:010782000076
:010783000174
:010784000074
:010785000172
:010786000072
:010787000170
:010788000070
:01078900016E
:01078A00006E
:01078B00016C
:01078C00006C
:01078D00006B
:01078E00006A
:01078F000168
:010790000068
:010791000067
:010792000066
:010793000164
:010794000064
:010795000162
:010796000062
:010797000061
:010798000060
:01079900005F
:01079A00005E
:01079B00005D
:01079C00005C
:01079D00015A
:01079E00005A
:01079F000158
:0107A0000058
:0107A1000057
:0107A2000056
:0107A3000055
:0107A4000054
:0107A5000053
:0107A6000052
:0107A7000051
:0107A8000050
:0107A900004F
:0107AA00004E
:0107AB00004D
:0107AC00004C
:0107AD00004B
:0107AE00004A
:0107AF000049
:0107B0000048
:0107B1000047
:0107B2000046
:0107B3000045
:0107B4000044
:0107B5000043
:0107B6000042
:0107B7000140
:0107B8000040
:0107B900013E
:0107BA00003E
:0107BB00003D
:0107BC00003C
:0107BD00013A
:0107BE00003A
:0107BF000039
:0107C0000038
:0107C1000136
:0107C2000036
:0107C3000035
:0107C4000034
:0107C5000033
:0107C6000032
:0107C7000031
:0107C8000030
:0107C900002F
:0107CA00002E
:0107CB00012C
:0107CC00002C
:0107CD00002B
:0107CE00002A
:0107CF000029
:0107D0000028
:0107D1000027
:0107D2000026
:0107D3000124
:0107D4000024
:0107D5000122
:0107D6000022
:0107D7000021
:0107D8000020
:0107D900001F
:0107DA00001E
:0107DB00011C
:0107DC00001C
:0107DD00011A
:0107DE00001A
:0107DF000019
:0107E0000018
:0107E1000116
:0107E2000016
:0107E3000015
:0107E4000014
:0107E5000013
:0107E6000012
:0107E7000110
:0107E8000010
:0107E900000F
:0107EA00000E
:0107EB00010C
:0107EC00000C
:0107ED00000B
:0107EE00000A
:0107EF000108
:0107F0000008
:0107F1000007
:0107F2000006
:0107F3000104
:0107F4000004
:0107F5000102
:0107F6000002
:0107F7000001
:0107F8000000
:0107F90000FF
:0107FA0000FE
:0107FB0000FD
:0107FC0000FC
:0107FD0001FA
:0107FE0000FA
:0107FF0001F8
:00000001FF
